{
  "contractName": "TodoList",
  "abi": [
    {
      "constant": true,
      "inputs": [],
      "name": "taskCount",
      "outputs": [
        {
          "name": "",
          "type": "uint256"
        }
      ],
      "payable": false,
      "stateMutability": "view",
      "type": "function"
    }
  ],
  "bytecode": "0x608060405260008055348015601357600080fd5b50609e806100226000396000f3fe608060405260043610603f576000357c0100000000000000000000000000000000000000000000000000000000900463ffffffff168063b6cb58a5146044575b600080fd5b348015604f57600080fd5b506056606c565b6040518082815260200191505060405180910390f35b6000548156fea165627a7a72305820ac5bd63844f45de83a2894f663d42f6032b7010bc0ffd7c91cd31152c0b080ae0029",
  "source": "//// SPDX-License-Identifier: UNLICENSED\r\n\r\npragma solidity ^0.5.0;\r\n\r\ncontract TodoList {\r\n    //state variable are written to block chain\r\n\r\n    uint256 public taskCount = 0;\r\n}\r\n",
  "sourcePath": "C:\\Users\\Asus-Home\\Desktop\\truffle\\contracts\\2_TodoList.sol",
  "compiler": {
    "name": "solc",
    "version": "0.5.0+commit.1d4f565a.Emscripten.clang"
  },
  "schemaVersion": "3.4.4",
  "updatedAt": "2022-01-27T03:33:24.153Z",
  "networkType": "ethereum",
  "devdoc": {
    "methods": {}
  },
  "userdoc": {
    "methods": {}
  }
}